{
  "contractName": "EdxToken",
  "abi": [
    {
      "constant": true,
      "inputs": [],
      "name": "name",
      "outputs": [
        {
          "name": "",
          "type": "string"
        }
      ],
      "payable": false,
      "stateMutability": "view",
      "type": "function"
    },
    {
      "constant": true,
      "inputs": [],
      "name": "decimals",
      "outputs": [
        {
          "name": "",
          "type": "uint8"
        }
      ],
      "payable": false,
      "stateMutability": "view",
      "type": "function"
    },
    {
      "constant": true,
      "inputs": [],
      "name": "symbol",
      "outputs": [
        {
          "name": "",
          "type": "string"
        }
      ],
      "payable": false,
      "stateMutability": "view",
      "type": "function"
    },
    {
      "inputs": [],
      "payable": false,
      "stateMutability": "nonpayable",
      "type": "constructor"
    },
    {
      "anonymous": false,
      "inputs": [
        {
          "indexed": true,
          "name": "from",
          "type": "address"
        },
        {
          "indexed": true,
          "name": "to",
          "type": "address"
        },
        {
          "indexed": false,
          "name": "value",
          "type": "uint256"
        }
      ],
      "name": "Transfer",
      "type": "event"
    },
    {
      "anonymous": false,
      "inputs": [
        {
          "indexed": true,
          "name": "owner",
          "type": "address"
        },
        {
          "indexed": true,
          "name": "spender",
          "type": "address"
        },
        {
          "indexed": false,
          "name": "value",
          "type": "uint256"
        }
      ],
      "name": "Approval",
      "type": "event"
    },
    {
      "constant": true,
      "inputs": [],
      "name": "totalSupply",
      "outputs": [
        {
          "name": "",
          "type": "uint256"
        }
      ],
      "payable": false,
      "stateMutability": "view",
      "type": "function"
    },
    {
      "constant": true,
      "inputs": [
        {
          "name": "owner",
          "type": "address"
        }
      ],
      "name": "balanceOf",
      "outputs": [
        {
          "name": "",
          "type": "uint256"
        }
      ],
      "payable": false,
      "stateMutability": "view",
      "type": "function"
    },
    {
      "constant": false,
      "inputs": [
        {
          "name": "account",
          "type": "address"
        },
        {
          "name": "value",
          "type": "uint256"
        }
      ],
      "name": "transferBasestone",
      "outputs": [],
      "payable": false,
      "stateMutability": "nonpayable",
      "type": "function"
    },
    {
      "constant": false,
      "inputs": [
        {
          "name": "account",
          "type": "address"
        },
        {
          "name": "value",
          "type": "uint256"
        }
      ],
      "name": "transferPE",
      "outputs": [],
      "payable": false,
      "stateMutability": "nonpayable",
      "type": "function"
    },
    {
      "constant": false,
      "inputs": [
        {
          "name": "account",
          "type": "address"
        },
        {
          "name": "value",
          "type": "uint256"
        }
      ],
      "name": "transferTM",
      "outputs": [],
      "payable": false,
      "stateMutability": "nonpayable",
      "type": "function"
    },
    {
      "constant": true,
      "inputs": [
        {
          "name": "owner",
          "type": "address"
        },
        {
          "name": "spender",
          "type": "address"
        }
      ],
      "name": "allowance",
      "outputs": [
        {
          "name": "",
          "type": "uint256"
        }
      ],
      "payable": false,
      "stateMutability": "view",
      "type": "function"
    },
    {
      "constant": false,
      "inputs": [
        {
          "name": "to",
          "type": "address"
        },
        {
          "name": "value",
          "type": "uint256"
        }
      ],
      "name": "transfer",
      "outputs": [
        {
          "name": "",
          "type": "bool"
        }
      ],
      "payable": false,
      "stateMutability": "nonpayable",
      "type": "function"
    },
    {
      "constant": false,
      "inputs": [
        {
          "name": "spender",
          "type": "address"
        },
        {
          "name": "value",
          "type": "uint256"
        }
      ],
      "name": "approve",
      "outputs": [
        {
          "name": "",
          "type": "bool"
        }
      ],
      "payable": false,
      "stateMutability": "nonpayable",
      "type": "function"
    },
    {
      "constant": false,
      "inputs": [
        {
          "name": "from",
          "type": "address"
        },
        {
          "name": "to",
          "type": "address"
        },
        {
          "name": "value",
          "type": "uint256"
        }
      ],
      "name": "transferFrom",
      "outputs": [
        {
          "name": "",
          "type": "bool"
        }
      ],
      "payable": false,
      "stateMutability": "nonpayable",
      "type": "function"
    },
    {
      "constant": false,
      "inputs": [
        {
          "name": "spender",
          "type": "address"
        },
        {
          "name": "addedValue",
          "type": "uint256"
        }
      ],
      "name": "increaseAllowance",
      "outputs": [
        {
          "name": "",
          "type": "bool"
        }
      ],
      "payable": false,
      "stateMutability": "nonpayable",
      "type": "function"
    },
    {
      "constant": false,
      "inputs": [
        {
          "name": "spender",
          "type": "address"
        },
        {
          "name": "subtractedValue",
          "type": "uint256"
        }
      ],
      "name": "decreaseAllowance",
      "outputs": [
        {
          "name": "",
          "type": "bool"
        }
      ],
      "payable": false,
      "stateMutability": "nonpayable",
      "type": "function"
    },
    {
      "constant": false,
      "inputs": [],
      "name": "release",
      "outputs": [],
      "payable": false,
      "stateMutability": "nonpayable",
      "type": "function"
    },
    {
      "constant": false,
      "inputs": [
        {
          "name": "account",
          "type": "address"
        }
      ],
      "name": "_moveBSBalance",
      "outputs": [],
      "payable": false,
      "stateMutability": "nonpayable",
      "type": "function"
    },
    {
      "constant": false,
      "inputs": [
        {
          "name": "account",
          "type": "address"
        }
      ],
      "name": "_movePEBalance",
      "outputs": [],
      "payable": false,
      "stateMutability": "nonpayable",
      "type": "function"
    },
    {
      "constant": false,
      "inputs": [
        {
          "name": "account",
          "type": "address"
        }
      ],
      "name": "_moveTMBalance",
      "outputs": [],
      "payable": false,
      "stateMutability": "nonpayable",
      "type": "function"
    },
    {
      "constant": false,
      "inputs": [
        {
          "name": "account",
          "type": "address"
        }
      ],
      "name": "revokeTMBalance",
      "outputs": [],
      "payable": false,
      "stateMutability": "nonpayable",
      "type": "function"
    }
  ],
  "bytecode": "0x60806040526040805190810160405280601e81526020017f456e746572707269736520446563656e7472616c697a656420546f6b656e00008152506003908051906020019062000051929190620001e0565b506040805190810160405280600381526020017f4544580000000000000000000000000000000000000000000000000000000000815250600490805190602001906200009f929190620001e0565b506012600560006101000a81548160ff021916908360ff160217905550348015620000c957600080fd5b506b01743b34e18439b502000000600c8190555033600d60006101000a81548173ffffffffffffffffffffffffffffffffffffffff021916908373ffffffffffffffffffffffffffffffffffffffff160217905550600c5460066000600d60009054906101000a900473ffffffffffffffffffffffffffffffffffffffff1673ffffffffffffffffffffffffffffffffffffffff1673ffffffffffffffffffffffffffffffffffffffff168152602001908152602001600020819055506a422ca8b0a00a4250000000600e600001819055506aa56fa5b99019a5c8000000600e600201819055506a3e09de2596099e2b000000600e600101819055506a4e950851be0c2ebf000000600e600301819055506200028f565b828054600181600116156101000203166002900490600052602060002090601f016020900481019282601f106200022357805160ff191683800117855562000254565b8280016001018555821562000254579182015b828111156200025357825182559160200191906001019062000236565b5b50905062000263919062000267565b5090565b6200028c91905b80821115620002885760008160009055506001016200026e565b5090565b90565b61269c806200029f6000396000f300608060405260043610610107576000357c0100000000000000000000000000000000000000000000000000000000900463ffffffff16806306fdde031461010c578063095ea7b31461019c57806318160ddd1461020157806323b872dd1461022c578063313ce567146102b157806339509351146102e25780633c4a209b14610347578063545cce6f1461038a57806370a08231146103d757806386d1a69f1461042e57806395d89b4114610445578063a457c2d7146104d5578063a9059cbb1461053a578063bca6dea11461059f578063bf7d4485146105e2578063c6a1878214610625578063d1ceac4914610672578063dd62ed3e146106bf578063f0014dd414610736575b600080fd5b34801561011857600080fd5b50610121610779565b6040518080602001828103825283818151815260200191508051906020019080838360005b83811015610161578082015181840152602081019050610146565b50505050905090810190601f16801561018e5780820380516001836020036101000a031916815260200191505b509250505060405180910390f35b3480156101a857600080fd5b506101e7600480360381019080803573ffffffffffffffffffffffffffffffffffffffff16906020019092919080359060200190929190505050610817565b604051808215151515815260200191505060405180910390f35b34801561020d57600080fd5b50610216610944565b6040518082815260200191505060405180910390f35b34801561023857600080fd5b50610297600480360381019080803573ffffffffffffffffffffffffffffffffffffffff169060200190929190803573ffffffffffffffffffffffffffffffffffffffff1690602001909291908035906020019092919050505061094e565b604051808215151515815260200191505060405180910390f35b3480156102bd57600080fd5b506102c6610b00565b604051808260ff1660ff16815260200191505060405180910390f35b3480156102ee57600080fd5b5061032d600480360381019080803573ffffffffffffffffffffffffffffffffffffffff16906020019092919080359060200190929190505050610b13565b604051808215151515815260200191505060405180910390f35b34801561035357600080fd5b50610388600480360381019080803573ffffffffffffffffffffffffffffffffffffffff169060200190929190505050610d4a565b005b34801561039657600080fd5b506103d5600480360381019080803573ffffffffffffffffffffffffffffffffffffffff169060200190929190803590602001909291905050506110b2565b005b3480156103e357600080fd5b50610418600480360381019080803573ffffffffffffffffffffffffffffffffffffffff16906020019092919050505061127c565b6040518082815260200191505060405180910390f35b34801561043a57600080fd5b506104436113dc565b005b34801561045157600080fd5b5061045a6113f1565b6040518080602001828103825283818151815260200191508051906020019080838360005b8381101561049a57808201518184015260208101905061047f565b50505050905090810190601f1680156104c75780820380516001836020036101000a031916815260200191505b509250505060405180910390f35b3480156104e157600080fd5b50610520600480360381019080803573ffffffffffffffffffffffffffffffffffffffff1690602001909291908035906020019092919050505061148f565b604051808215151515815260200191505060405180910390f35b34801561054657600080fd5b50610585600480360381019080803573ffffffffffffffffffffffffffffffffffffffff169060200190929190803590602001909291905050506116c6565b604051808215151515815260200191505060405180910390f35b3480156105ab57600080fd5b506105e0600480360381019080803573ffffffffffffffffffffffffffffffffffffffff1690602001909291905050506116dd565b005b3480156105ee57600080fd5b50610623600480360381019080803573ffffffffffffffffffffffffffffffffffffffff169060200190929190505050611a52565b005b34801561063157600080fd5b50610670600480360381019080803573ffffffffffffffffffffffffffffffffffffffff16906020019092919080359060200190929190505050611d53565b005b34801561067e57600080fd5b506106bd600480360381019080803573ffffffffffffffffffffffffffffffffffffffff16906020019092919080359060200190929190505050611f1d565b005b3480156106cb57600080fd5b50610720600480360381019080803573ffffffffffffffffffffffffffffffffffffffff169060200190929190803573ffffffffffffffffffffffffffffffffffffffff1690602001909291905050506120e7565b6040518082815260200191505060405180910390f35b34801561074257600080fd5b50610777600480360381019080803573ffffffffffffffffffffffffffffffffffffffff16906020019092919050505061216e565b005b60038054600181600116156101000203166002900480601f01602080910402602001604051908101604052809291908181526020018280546001816001161561010002031660029004801561080f5780601f106107e45761010080835404028352916020019161080f565b820191906000526020600020905b8154815290600101906020018083116107f257829003601f168201915b505050505081565b60008073ffffffffffffffffffffffffffffffffffffffff168373ffffffffffffffffffffffffffffffffffffffff161415151561085457600080fd5b81600a60003373ffffffffffffffffffffffffffffffffffffffff1673ffffffffffffffffffffffffffffffffffffffff16815260200190815260200160002060008573ffffffffffffffffffffffffffffffffffffffff1673ffffffffffffffffffffffffffffffffffffffff168152602001908152602001600020819055508273ffffffffffffffffffffffffffffffffffffffff163373ffffffffffffffffffffffffffffffffffffffff167f8c5be1e5ebec7d5bd14f71427d1e84f3dd0314c0f7b2291e5b200ac8c7c3b925846040518082815260200191505060405180910390a36001905092915050565b6000600c54905090565b6000600a60008573ffffffffffffffffffffffffffffffffffffffff1673ffffffffffffffffffffffffffffffffffffffff16815260200190815260200160002060003373ffffffffffffffffffffffffffffffffffffffff1673ffffffffffffffffffffffffffffffffffffffff1681526020019081526020016000205482111515156109db57600080fd5b610a6a82600a60008773ffffffffffffffffffffffffffffffffffffffff1673ffffffffffffffffffffffffffffffffffffffff16815260200190815260200160002060003373ffffffffffffffffffffffffffffffffffffffff1673ffffffffffffffffffffffffffffffffffffffff1681526020019081526020016000205461238d90919063ffffffff16565b600a60008673ffffffffffffffffffffffffffffffffffffffff1673ffffffffffffffffffffffffffffffffffffffff16815260200190815260200160002060003373ffffffffffffffffffffffffffffffffffffffff1673ffffffffffffffffffffffffffffffffffffffff16815260200190815260200160002081905550610af58484846123ae565b600190509392505050565b600560009054906101000a900460ff1681565b60008073ffffffffffffffffffffffffffffffffffffffff168373ffffffffffffffffffffffffffffffffffffffff1614151515610b5057600080fd5b610bdf82600a60003373ffffffffffffffffffffffffffffffffffffffff1673ffffffffffffffffffffffffffffffffffffffff16815260200190815260200160002060008673ffffffffffffffffffffffffffffffffffffffff1673ffffffffffffffffffffffffffffffffffffffff168152602001908152602001600020546125e790919063ffffffff16565b600a60003373ffffffffffffffffffffffffffffffffffffffff1673ffffffffffffffffffffffffffffffffffffffff16815260200190815260200160002060008573ffffffffffffffffffffffffffffffffffffffff1673ffffffffffffffffffffffffffffffffffffffff168152602001908152602001600020819055508273ffffffffffffffffffffffffffffffffffffffff163373ffffffffffffffffffffffffffffffffffffffff167f8c5be1e5ebec7d5bd14f71427d1e84f3dd0314c0f7b2291e5b200ac8c7c3b925600a60003373ffffffffffffffffffffffffffffffffffffffff1673ffffffffffffffffffffffffffffffffffffffff16815260200190815260200160002060008773ffffffffffffffffffffffffffffffffffffffff1673ffffffffffffffffffffffffffffffffffffffff168152602001908152602001600020546040518082815260200191505060405180910390a36001905092915050565b600080600080600b5414158015610da357506000600860008673ffffffffffffffffffffffffffffffffffffffff1673ffffffffffffffffffffffffffffffffffffffff16815260200190815260200160002060010154115b15610f2e57600b544203925060009150629e3400831015610e2e57610e27600a610e196009600860008973ffffffffffffffffffffffffffffffffffffffff1673ffffffffffffffffffffffffffffffffffffffff1681526020019081526020016000206000015461260890919063ffffffff16565b61264690919063ffffffff16565b9150610f2d565b630163f500831015610eaa57610ea3600a610e956006600860008973ffffffffffffffffffffffffffffffffffffffff1673ffffffffffffffffffffffffffffffffffffffff1681526020019081526020016000206000015461260890919063ffffffff16565b61264690919063ffffffff16565b9150610f2c565b6301da9c00831015610f2657610f1f600a610f116003600860008973ffffffffffffffffffffffffffffffffffffffff1673ffffffffffffffffffffffffffffffffffffffff1681526020019081526020016000206000015461260890919063ffffffff16565b61264690919063ffffffff16565b9150610f2b565b600091505b5b5b5b81600760008673ffffffffffffffffffffffffffffffffffffffff1673ffffffffffffffffffffffffffffffffffffffff1681526020019081526020016000206001015411156110ac57610fcd82600860008773ffffffffffffffffffffffffffffffffffffffff1673ffffffffffffffffffffffffffffffffffffffff1681526020019081526020016000206001015461238d90919063ffffffff16565b905081600860008673ffffffffffffffffffffffffffffffffffffffff1673ffffffffffffffffffffffffffffffffffffffff1681526020019081526020016000206001018190555061106881600660008773ffffffffffffffffffffffffffffffffffffffff1673ffffffffffffffffffffffffffffffffffffffff168152602001908152602001600020546125e790919063ffffffff16565b600660008673ffffffffffffffffffffffffffffffffffffffff1673ffffffffffffffffffffffffffffffffffffffff168152602001908152602001600020819055505b50505050565b600d60009054906101000a900473ffffffffffffffffffffffffffffffffffffffff1673ffffffffffffffffffffffffffffffffffffffff163373ffffffffffffffffffffffffffffffffffffffff1614151561110e57600080fd5b80600e6001015411151561112157600080fd5b61113981600e6001015461238d90919063ffffffff16565b600e6001018190555061119781600960008573ffffffffffffffffffffffffffffffffffffffff1673ffffffffffffffffffffffffffffffffffffffff168152602001908152602001600020600001546125e790919063ffffffff16565b600960008473ffffffffffffffffffffffffffffffffffffffff1673ffffffffffffffffffffffffffffffffffffffff1681526020019081526020016000206000018190555061123281600960008573ffffffffffffffffffffffffffffffffffffffff1673ffffffffffffffffffffffffffffffffffffffff168152602001908152602001600020600101546125e790919063ffffffff16565b600960008473ffffffffffffffffffffffffffffffffffffffff1673ffffffffffffffffffffffffffffffffffffffff168152602001908152602001600020600101819055505050565b600080600090506113d1600960008573ffffffffffffffffffffffffffffffffffffffff1673ffffffffffffffffffffffffffffffffffffffff168152602001908152602001600020600101546113c3600860008773ffffffffffffffffffffffffffffffffffffffff1673ffffffffffffffffffffffffffffffffffffffff168152602001908152602001600020600101546113b5600760008973ffffffffffffffffffffffffffffffffffffffff1673ffffffffffffffffffffffffffffffffffffffff168152602001908152602001600020600101546113a7600660008b73ffffffffffffffffffffffffffffffffffffffff1673ffffffffffffffffffffffffffffffffffffffff16815260200190815260200160002054886125e790919063ffffffff16565b6125e790919063ffffffff16565b6125e790919063ffffffff16565b6125e790919063ffffffff16565b905080915050919050565b6000600b5414156113ef5742600b819055505b565b60048054600181600116156101000203166002900480601f0160208091040260200160405190810160405280929190818152602001828054600181600116156101000203166002900480156114875780601f1061145c57610100808354040283529160200191611487565b820191906000526020600020905b81548152906001019060200180831161146a57829003601f168201915b505050505081565b60008073ffffffffffffffffffffffffffffffffffffffff168373ffffffffffffffffffffffffffffffffffffffff16141515156114cc57600080fd5b61155b82600a60003373ffffffffffffffffffffffffffffffffffffffff1673ffffffffffffffffffffffffffffffffffffffff16815260200190815260200160002060008673ffffffffffffffffffffffffffffffffffffffff1673ffffffffffffffffffffffffffffffffffffffff1681526020019081526020016000205461238d90919063ffffffff16565b600a60003373ffffffffffffffffffffffffffffffffffffffff1673ffffffffffffffffffffffffffffffffffffffff16815260200190815260200160002060008573ffffffffffffffffffffffffffffffffffffffff1673ffffffffffffffffffffffffffffffffffffffff168152602001908152602001600020819055508273ffffffffffffffffffffffffffffffffffffffff163373ffffffffffffffffffffffffffffffffffffffff167f8c5be1e5ebec7d5bd14f71427d1e84f3dd0314c0f7b2291e5b200ac8c7c3b925600a60003373ffffffffffffffffffffffffffffffffffffffff1673ffffffffffffffffffffffffffffffffffffffff16815260200190815260200160002060008773ffffffffffffffffffffffffffffffffffffffff1673ffffffffffffffffffffffffffffffffffffffff168152602001908152602001600020546040518082815260200191505060405180910390a36001905092915050565b60006116d33384846123ae565b6001905092915050565b600080600080600b54141580156116f55750600b5442115b801561174357506000600760008673ffffffffffffffffffffffffffffffffffffffff1673ffffffffffffffffffffffffffffffffffffffff16815260200190815260200160002060010154115b156118ce57600b54420392506000915062ed4e008310156117ce576117c7600a6117b96009600760008973ffffffffffffffffffffffffffffffffffffffff1673ffffffffffffffffffffffffffffffffffffffff1681526020019081526020016000206000015461260890919063ffffffff16565b61264690919063ffffffff16565b91506118cd565b6301da9c0083101561184a57611843600a6118356006600760008973ffffffffffffffffffffffffffffffffffffffff1673ffffffffffffffffffffffffffffffffffffffff1681526020019081526020016000206000015461260890919063ffffffff16565b61264690919063ffffffff16565b91506118cc565b6302c7ea008310156118c6576118bf600a6118b16003600760008973ffffffffffffffffffffffffffffffffffffffff1673ffffffffffffffffffffffffffffffffffffffff1681526020019081526020016000206000015461260890919063ffffffff16565b61264690919063ffffffff16565b91506118cb565b600091505b5b5b5b81600760008673ffffffffffffffffffffffffffffffffffffffff1673ffffffffffffffffffffffffffffffffffffffff168152602001908152602001600020600101541115611a4c5761196d82600760008773ffffffffffffffffffffffffffffffffffffffff1673ffffffffffffffffffffffffffffffffffffffff1681526020019081526020016000206001015461238d90919063ffffffff16565b905081600760008673ffffffffffffffffffffffffffffffffffffffff1673ffffffffffffffffffffffffffffffffffffffff16815260200190815260200160002060010181905550611a0881600660008773ffffffffffffffffffffffffffffffffffffffff1673ffffffffffffffffffffffffffffffffffffffff168152602001908152602001600020546125e790919063ffffffff16565b600660008673ffffffffffffffffffffffffffffffffffffffff1673ffffffffffffffffffffffffffffffffffffffff168152602001908152602001600020819055505b50505050565b600080600080600b5414158015611aab57506000600960008673ffffffffffffffffffffffffffffffffffffffff1673ffffffffffffffffffffffffffffffffffffffff16815260200190815260200160002060010154115b15611bcf57600b54420392506000915062278d00831015611b3557611b2e600a611b2060098060008973ffffffffffffffffffffffffffffffffffffffff1673ffffffffffffffffffffffffffffffffffffffff1681526020019081526020016000206000015461260890919063ffffffff16565b61264690919063ffffffff16565b9150611bce565b6201518083811515611b4357fe5b0492506103e883111515611bc857611bc1612710611bb3856103e803600902600960008973ffffffffffffffffffffffffffffffffffffffff1673ffffffffffffffffffffffffffffffffffffffff1681526020019081526020016000206000015461260890919063ffffffff16565b61264690919063ffffffff16565b9150611bcd565b600091505b5b5b81600760008673ffffffffffffffffffffffffffffffffffffffff1673ffffffffffffffffffffffffffffffffffffffff168152602001908152602001600020600101541115611d4d57611c6e82600960008773ffffffffffffffffffffffffffffffffffffffff1673ffffffffffffffffffffffffffffffffffffffff1681526020019081526020016000206001015461238d90919063ffffffff16565b905081600960008673ffffffffffffffffffffffffffffffffffffffff1673ffffffffffffffffffffffffffffffffffffffff16815260200190815260200160002060010181905550611d0981600660008773ffffffffffffffffffffffffffffffffffffffff1673ffffffffffffffffffffffffffffffffffffffff168152602001908152602001600020546125e790919063ffffffff16565b600660008673ffffffffffffffffffffffffffffffffffffffff1673ffffffffffffffffffffffffffffffffffffffff168152602001908152602001600020819055505b50505050565b600d60009054906101000a900473ffffffffffffffffffffffffffffffffffffffff1673ffffffffffffffffffffffffffffffffffffffff163373ffffffffffffffffffffffffffffffffffffffff16141515611daf57600080fd5b80600e60020154111515611dc257600080fd5b611dda81600e6002015461238d90919063ffffffff16565b600e60020181905550611e3881600860008573ffffffffffffffffffffffffffffffffffffffff1673ffffffffffffffffffffffffffffffffffffffff168152602001908152602001600020600001546125e790919063ffffffff16565b600860008473ffffffffffffffffffffffffffffffffffffffff1673ffffffffffffffffffffffffffffffffffffffff16815260200190815260200160002060000181905550611ed381600860008573ffffffffffffffffffffffffffffffffffffffff1673ffffffffffffffffffffffffffffffffffffffff168152602001908152602001600020600101546125e790919063ffffffff16565b600860008473ffffffffffffffffffffffffffffffffffffffff1673ffffffffffffffffffffffffffffffffffffffff168152602001908152602001600020600101819055505050565b600d60009054906101000a900473ffffffffffffffffffffffffffffffffffffffff1673ffffffffffffffffffffffffffffffffffffffff163373ffffffffffffffffffffffffffffffffffffffff16141515611f7957600080fd5b80600e60000154111515611f8c57600080fd5b611fa481600e6000015461238d90919063ffffffff16565b600e6000018190555061200281600760008573ffffffffffffffffffffffffffffffffffffffff1673ffffffffffffffffffffffffffffffffffffffff168152602001908152602001600020600001546125e790919063ffffffff16565b600760008473ffffffffffffffffffffffffffffffffffffffff1673ffffffffffffffffffffffffffffffffffffffff1681526020019081526020016000206000018190555061209d81600760008573ffffffffffffffffffffffffffffffffffffffff1673ffffffffffffffffffffffffffffffffffffffff168152602001908152602001600020600101546125e790919063ffffffff16565b600760008473ffffffffffffffffffffffffffffffffffffffff1673ffffffffffffffffffffffffffffffffffffffff168152602001908152602001600020600101819055505050565b6000600a60008473ffffffffffffffffffffffffffffffffffffffff1673ffffffffffffffffffffffffffffffffffffffff16815260200190815260200160002060008373ffffffffffffffffffffffffffffffffffffffff1673ffffffffffffffffffffffffffffffffffffffff16815260200190815260200160002054905092915050565b6000600960008373ffffffffffffffffffffffffffffffffffffffff1673ffffffffffffffffffffffffffffffffffffffff168152602001908152602001600020600101541180156122445750600960008273ffffffffffffffffffffffffffffffffffffffff1673ffffffffffffffffffffffffffffffffffffffff16815260200190815260200160002060010154600960008373ffffffffffffffffffffffffffffffffffffffff1673ffffffffffffffffffffffffffffffffffffffff1681526020019081526020016000206000015410155b1561238a576122e0600960008373ffffffffffffffffffffffffffffffffffffffff1673ffffffffffffffffffffffffffffffffffffffff16815260200190815260200160002060010154600960008473ffffffffffffffffffffffffffffffffffffffff1673ffffffffffffffffffffffffffffffffffffffff1681526020019081526020016000206000015461238d90919063ffffffff16565b600960008373ffffffffffffffffffffffffffffffffffffffff1673ffffffffffffffffffffffffffffffffffffffff16815260200190815260200160002060000181905550612380600960008373ffffffffffffffffffffffffffffffffffffffff1673ffffffffffffffffffffffffffffffffffffffff16815260200190815260200160002060010154600e600101546125e790919063ffffffff16565b600e600101819055505b50565b60008083831115151561239f57600080fd5b82840390508091505092915050565b6123b7836116dd565b6123c083610d4a565b6123c983611a52565b600660008473ffffffffffffffffffffffffffffffffffffffff1673ffffffffffffffffffffffffffffffffffffffff16815260200190815260200160002054811115151561241757600080fd5b600073ffffffffffffffffffffffffffffffffffffffff168273ffffffffffffffffffffffffffffffffffffffff161415151561245357600080fd5b6124a581600660008673ffffffffffffffffffffffffffffffffffffffff1673ffffffffffffffffffffffffffffffffffffffff1681526020019081526020016000205461238d90919063ffffffff16565b600660008573ffffffffffffffffffffffffffffffffffffffff1673ffffffffffffffffffffffffffffffffffffffff1681526020019081526020016000208190555061253a81600660008573ffffffffffffffffffffffffffffffffffffffff1673ffffffffffffffffffffffffffffffffffffffff168152602001908152602001600020546125e790919063ffffffff16565b600660008473ffffffffffffffffffffffffffffffffffffffff1673ffffffffffffffffffffffffffffffffffffffff168152602001908152602001600020819055508173ffffffffffffffffffffffffffffffffffffffff168373ffffffffffffffffffffffffffffffffffffffff167fddf252ad1be2c89b69c2b068fc378daa952ba7f163c4a11628f55a4df523b3ef836040518082815260200191505060405180910390a3505050565b60008082840190508381101515156125fe57600080fd5b8091505092915050565b600080600084141561261d576000915061263f565b828402905082848281151561262e57fe5b0414151561263b57600080fd5b8091505b5092915050565b60008060008311151561265857600080fd5b828481151561266357fe5b04905080915050929150505600a165627a7a72305820ddcfdd154590d9b17036e91dfb92918e0a47efb17042f0143714baa1021a4e780029",
  "source": "\n// mock class using ERC20\npragma solidity ^0.4.24;\n\nimport \"openzeppelin-solidity/contracts/token/ERC20/ERC20.sol\";\nimport \"openzeppelin-solidity/contracts/math/SafeMath.sol\";\n\n/**\n * @title Standard ERC20 token\n *\n * @dev Implementation of the basic standard token.\n * https://github.com/ethereum/EIPs/blob/master/EIPS/eip-20.md\n * Originally based on code by FirstBlood: https://github.com/Firstbloodio/token/blob/master/smart_contract/FirstBloodToken.sol\n */\ncontract EdxToken is ERC20 {\n  using SafeMath for uint256;\n\tstring public name = \"Enterprise Decentralized Token\";\n\tstring public symbol = \"EDX\";\n\tuint8 public decimals = 18;\n\n\tstruct VestInfo { // Struct\n\t\t\tuint256 vested;\n\t\t\tuint256 remain;\n\t}\n\tstruct CoinInfo {\n\t\tuint256 bsRemain;\n\t\tuint256 tmRemain;\n\t\tuint256 peRemain;\n\t\tuint256 remains;\n\t}\n  mapping (address => uint256) private _balances;\t\t //balance of transferrable\n  mapping (address => VestInfo) private _bs_balance; //info of vested\n\tmapping (address => VestInfo) private _pe_balance;\n\tmapping (address => VestInfo) private _tm_balance;\n  mapping (address => mapping (address => uint256)) private _allowed;\n\n\tuint    _releaseTime;\n  uint256 private _totalSupply;\n\taddress _owner;\n\tCoinInfo supplies;\n\n  constructor() public {\n\t\t// 450 million , other 1.05 billion will be minted\n\t\t_totalSupply = 450 * 1000000 * (10**18);\n\t\t_owner = msg.sender;\n\t\t_balances[_owner] = _totalSupply;\n\t\tsupplies.bsRemain = 80*1000000*(10**18);\n\t\tsupplies.peRemain = 200*1000000*(10**18);\n\t\tsupplies.tmRemain = 75*1000000*(10**18);\n\t\tsupplies.remains =  95*1000000*(10**18);\n\t}\n  /**\n  * @dev Total number of tokens in existence\n  */\n  function totalSupply() public view returns (uint256) {\n    return _totalSupply;\n  }\n\n  /**\n  * @dev Gets the balance of the specified address.\n  * @param owner The address to query the balance of.\n  * @return An uint256 representing the amount owned by the passed address.\n  */\n  function balanceOf(address owner) public view returns (uint256) {\n\t\tuint256 result = 0;\n\t\tresult = result.add(_balances[owner]).add(_bs_balance[owner].remain).add(_pe_balance[owner].remain).add(_tm_balance[owner].remain);\n\n    return result;\n  }\n\n\tfunction  transferBasestone(address account, uint256 value) public {\n\t\trequire(msg.sender == _owner);\n\t\trequire(supplies.bsRemain > value);\n\t\tsupplies.bsRemain = supplies.bsRemain.sub(value);\n\t\t_bs_balance[account].vested = _bs_balance[account].vested.add(value);\n\t\t_bs_balance[account].remain = _bs_balance[account].remain.add(value);\n\n\t}\n\tfunction  transferPE(address account, uint256 value) public {\n\t\trequire(msg.sender == _owner);\n\t\trequire(supplies.peRemain > value);\n\t\tsupplies.peRemain = supplies.peRemain.sub(value);\n\t\t_pe_balance[account].vested = _pe_balance[account].vested.add(value);\n\t\t_pe_balance[account].remain = _pe_balance[account].remain.add(value);\n\t}\n\tfunction  transferTM(address account, uint256 value) public {\n\t\trequire(msg.sender == _owner);\n\t\trequire(supplies.tmRemain > value);\n\t\tsupplies.tmRemain = supplies.tmRemain.sub(value);\n\t\t_tm_balance[account].vested = _tm_balance[account].vested.add(value);\n\t\t_tm_balance[account].remain = _tm_balance[account].remain.add(value);\n\t}\n\n\n  /**\n   * @dev Function to check the amount of tokens that an owner allowed to a spender.\n   * @param owner address The address which owns the funds.\n   * @param spender address The address which will spend the funds.\n   * @return A uint256 specifying the amount of tokens still available for the spender.\n   */\n  function allowance(\n    address owner,\n    address spender\n   )\n    public\n    view\n    returns (uint256)\n  {\n    return _allowed[owner][spender];\n  }\n\n  /**\n  * @dev Transfer token for a specified address\n  * @param to The address to transfer to.\n  * @param value The amount to be transferred.\n  */\n  function transfer(address to, uint256 value) public returns (bool) {\n    _transfer(msg.sender, to, value);\n    return true;\n  }\n\n  /**\n   * @dev Approve the passed address to spend the specified amount of tokens on behalf of msg.sender.\n   * Beware that changing an allowance with this method brings the risk that someone may use both the old\n   * and the new allowance by unfortunate transaction ordering. One possible solution to mitigate this\n   * race condition is to first reduce the spender's allowance to 0 and set the desired value afterwards:\n   * https://github.com/ethereum/EIPs/issues/20#issuecomment-263524729\n   * @param spender The address which will spend the funds.\n   * @param value The amount of tokens to be spent.\n   */\n  function approve(address spender, uint256 value) public returns (bool) {\n    require(spender != address(0));\n\n    _allowed[msg.sender][spender] = value;\n    emit Approval(msg.sender, spender, value);\n    return true;\n  }\n\n  /**\n   * @dev Transfer tokens from one address to another\n   * @param from address The address which you want to send tokens from\n   * @param to address The address which you want to transfer to\n   * @param value uint256 the amount of tokens to be transferred\n   */\n  function transferFrom(\n    address from,\n    address to,\n    uint256 value\n  )\n    public\n    returns (bool)\n  {\n    require(value <= _allowed[from][msg.sender]);\n\n    _allowed[from][msg.sender] = _allowed[from][msg.sender].sub(value);\n    _transfer(from, to, value);\n    return true;\n  }\n\n  /**\n   * @dev Increase the amount of tokens that an owner allowed to a spender.\n   * approve should be called when allowed_[_spender] == 0. To increment\n   * allowed value is better to use this function to avoid 2 calls (and wait until\n   * the first transaction is mined)\n   * From MonolithDAO Token.sol\n   * @param spender The address which will spend the funds.\n   * @param addedValue The amount of tokens to increase the allowance by.\n   */\n  function increaseAllowance(\n    address spender,\n    uint256 addedValue\n  )\n    public\n    returns (bool)\n  {\n    require(spender != address(0));\n\n    _allowed[msg.sender][spender] = (\n      _allowed[msg.sender][spender].add(addedValue));\n    emit Approval(msg.sender, spender, _allowed[msg.sender][spender]);\n    return true;\n  }\n\n  /**\n   * @dev Decrease the amount of tokens that an owner allowed to a spender.\n   * approve should be called when allowed_[_spender] == 0. To decrement\n   * allowed value is better to use this function to avoid 2 calls (and wait until\n   * the first transaction is mined)\n   * From MonolithDAO Token.sol\n   * @param spender The address which will spend the funds.\n   * @param subtractedValue The amount of tokens to decrease the allowance by.\n   */\n  function decreaseAllowance(\n    address spender,\n    uint256 subtractedValue\n  )\n    public\n    returns (bool)\n  {\n    require(spender != address(0));\n\n    _allowed[msg.sender][spender] = (\n      _allowed[msg.sender][spender].sub(subtractedValue));\n    emit Approval(msg.sender, spender, _allowed[msg.sender][spender]);\n    return true;\n  }\n\n  /**\n  * @dev Transfer token for a specified addresses\n  * @param from The address to transfer from.\n  * @param to The address to transfer to.\n  * @param value The amount to be transferred.\n  */\n  function _transfer(address from, address to, uint256 value) internal {\n\t\t_moveBSBalance(from);\n\t\t_movePEBalance(from);\n\t\t_moveTMBalance(from);\n    require(value <= _balances[from]);\n    require(to != address(0));\n\n    _balances[from] = _balances[from].sub(value);\n    _balances[to] = _balances[to].add(value);\n    emit Transfer(from, to, value);\n  }\n\n\n\n\n\tfunction release() public {\n\t\tif(_releaseTime == 0) {\n\t\t\t_releaseTime = now;\n\t\t}\n\t}\n\tfunction _moveBSBalance(address account) public {\n\t\tif( _releaseTime !=  0 && now > _releaseTime && _bs_balance[account].remain > 0){\n\t\t\tuint  elasped = now - _releaseTime;\n\t\t\tuint256 shouldRemain = 0;\n\t\t\tif(elasped < 180 days) { //\n\t\t\t\tshouldRemain = _bs_balance[account].vested.mul(9).div(10);\n\t\t\t} else if(elasped < 360 days) {\n\t\t\t\t\tshouldRemain = _bs_balance[account].vested .mul(6).div(10);\n\n\t\t\t} else if( elasped < 540 days) {\n\t\t\t\t\tshouldRemain = _bs_balance[account].vested .mul(3).div(10);\n\t\t\t}else {\n\t\t\t\tshouldRemain = 0;\n\t\t\t}\n\t\t}\n\t\tif(_bs_balance[account].remain > shouldRemain) {\n\t\t\tuint256 toMove = _bs_balance[account].remain.sub(shouldRemain);\n\t\t\t_bs_balance[account].remain = shouldRemain;\n\t\t\t_balances[account] = _balances[account].add(toMove);\n\t\t}\n\t}\n\tfunction _movePEBalance(address account) public {\n\t\tif( _releaseTime !=  0 && _pe_balance[account].remain > 0){\n\t\t\tuint  elasped = now - _releaseTime;\n\t\t\tuint256 shouldRemain = 0;\n\t\t\tif(elasped < 120 days) { //\n\t\t\t\tshouldRemain = _pe_balance[account].vested.mul(9).div(10);\n\n\t\t\t} else if(elasped < 270 days) {\n\t\t\t\t\tshouldRemain = _pe_balance[account].vested .mul(6).div(10);\n\t\t\t} else if( elasped < 360 days) {\n\t\t\t\t\tshouldRemain = _pe_balance[account].vested .mul(3).div(10);\n\t\t\t} else {\n\t\t\t\t\tshouldRemain = 0;\n\t\t\t}\n\n\t\t}\n\t\tif(_bs_balance[account].remain > shouldRemain) {\n\t\t\tuint256 toMove = _pe_balance[account].remain.sub(shouldRemain);\n\t\t\t_pe_balance[account].remain = shouldRemain;\n\t\t\t_balances[account] = _balances[account].add(toMove);\n\t\t}\n\t}\n\tfunction _moveTMBalance(address account ) public {\n\t\tif( _releaseTime !=  0 && _tm_balance[account].remain > 0){\n\t\t\tuint  elasped = now - _releaseTime;\n\t\t\tuint256 shouldRemain = 0;\n\t\t\tif(elasped < 30 days) { //release 10%\n\t\t\t\tshouldRemain = _tm_balance[account].vested.mul(9).div(10);\n\t\t\t} else {\n\t\t\t\t  //release other 90% linearly\n\t\t\t\t\telasped = elasped / 1 days;\n\t\t\t\t\tif(elasped <= 1000){\n\t\t\t\t\t\t\tshouldRemain = _tm_balance[account].vested.mul(9*(1000-elasped)).div(10000);\n\t\t\t\t\t}else {\n\t\t\t\t\t\t\tshouldRemain = 0;\n\t\t\t\t\t}\n\t\t\t}\n\t\t}\n\t\tif(_bs_balance[account].remain > shouldRemain) {\n\t\t\tuint256 toMove = _tm_balance[account].remain.sub(shouldRemain);\n\t\t\t_tm_balance[account].remain = shouldRemain;\n\t\t\t_balances[account] = _balances[account].add(toMove);\n\t\t}\n\t}\n\n\tfunction revokeTMBalance(address account) public {\n\t\t\tif(_tm_balance[account].remain > 0  && _tm_balance[account].vested >= _tm_balance[account].remain ){\n\t\t\t\t_tm_balance[account].vested = _tm_balance[account].vested.sub(_tm_balance[account].remain);\n\t\t\t\tsupplies.tmRemain = supplies.tmRemain.add(_tm_balance[account].remain);\n\t\t\t}\n\t}\n}\n",
  "sourcePath": "/Users/vis/EdxToken/contracts/EdxToken.sol",
  "compiler": {
    "name": "solc",
    "version": "0.4.24+commit.e67f0147.Emscripten.clang"
  },
  "schemaVersion": "2.0.1",
  "updatedAt": "2018-11-24T12:24:18.284Z"
}